{
  "address": "0xB627B5210Cc313AB37B78f05DD7733e051220FC1",
  "abi": [
    {
      "anonymous": false,
      "inputs": [
        {
          "indexed": false,
          "internalType": "address",
          "name": "previousAdmin",
          "type": "address"
        },
        {
          "indexed": false,
          "internalType": "address",
          "name": "newAdmin",
          "type": "address"
        }
      ],
      "name": "AdminChanged",
      "type": "event"
    },
    {
      "anonymous": false,
      "inputs": [
        {
          "indexed": true,
          "internalType": "address",
          "name": "beacon",
          "type": "address"
        }
      ],
      "name": "BeaconUpgraded",
      "type": "event"
    },
    {
      "anonymous": false,
      "inputs": [
        {
          "indexed": false,
          "internalType": "uint8",
          "name": "version",
          "type": "uint8"
        }
      ],
      "name": "Initialized",
      "type": "event"
    },
    {
      "anonymous": false,
      "inputs": [
        {
          "indexed": false,
          "internalType": "address",
          "name": "token",
          "type": "address"
        },
        {
          "indexed": false,
          "internalType": "address",
          "name": "receiver",
          "type": "address"
        },
        {
          "indexed": false,
          "internalType": "uint256",
          "name": "amount",
          "type": "uint256"
        }
      ],
      "name": "Mint",
      "type": "event"
    },
    {
      "anonymous": false,
      "inputs": [
        {
          "indexed": true,
          "internalType": "address",
          "name": "previousOwner",
          "type": "address"
        },
        {
          "indexed": true,
          "internalType": "address",
          "name": "newOwner",
          "type": "address"
        }
      ],
      "name": "OwnershipTransferred",
      "type": "event"
    },
    {
      "anonymous": false,
      "inputs": [
        {
          "indexed": false,
          "internalType": "uint16",
          "name": "tokenId",
          "type": "uint16"
        },
        {
          "indexed": false,
          "internalType": "uint256",
          "name": "mintAmount",
          "type": "uint256"
        }
      ],
      "name": "SetMintAmount",
      "type": "event"
    },
    {
      "anonymous": false,
      "inputs": [
        {
          "indexed": false,
          "internalType": "address",
          "name": "zklinkInstance",
          "type": "address"
        }
      ],
      "name": "SetZKLink",
      "type": "event"
    },
    {
      "anonymous": false,
      "inputs": [
        {
          "indexed": false,
          "internalType": "address",
          "name": "account",
          "type": "address"
        },
        {
          "indexed": false,
          "internalType": "bool",
          "name": "isWhiteList",
          "type": "bool"
        }
      ],
      "name": "UpdateWhiteList",
      "type": "event"
    },
    {
      "anonymous": false,
      "inputs": [
        {
          "indexed": true,
          "internalType": "address",
          "name": "implementation",
          "type": "address"
        }
      ],
      "name": "Upgraded",
      "type": "event"
    },
    {
      "inputs": [],
      "name": "amount",
      "outputs": [
        {
          "internalType": "uint256",
          "name": "",
          "type": "uint256"
        }
      ],
      "stateMutability": "view",
      "type": "function"
    },
    {
      "inputs": [
        {
          "internalType": "address",
          "name": "account",
          "type": "address"
        }
      ],
      "name": "checkIsInWhiteList",
      "outputs": [
        {
          "internalType": "bool",
          "name": "",
          "type": "bool"
        }
      ],
      "stateMutability": "view",
      "type": "function"
    },
    {
      "inputs": [],
      "name": "delayTimeLang",
      "outputs": [
        {
          "internalType": "uint32",
          "name": "",
          "type": "uint32"
        }
      ],
      "stateMutability": "view",
      "type": "function"
    },
    {
      "inputs": [
        {
          "internalType": "address",
          "name": "account",
          "type": "address"
        },
        {
          "internalType": "address",
          "name": "token",
          "type": "address"
        }
      ],
      "name": "getDelayExpiration",
      "outputs": [
        {
          "internalType": "uint256",
          "name": "",
          "type": "uint256"
        }
      ],
      "stateMutability": "view",
      "type": "function"
    },
    {
      "inputs": [
        {
          "internalType": "address",
          "name": "token",
          "type": "address"
        }
      ],
      "name": "getMintAmount",
      "outputs": [
        {
          "internalType": "uint16",
          "name": "tokenId",
          "type": "uint16"
        },
        {
          "internalType": "uint256",
          "name": "mintAllowance",
          "type": "uint256"
        }
      ],
      "stateMutability": "view",
      "type": "function"
    },
    {
      "inputs": [],
      "name": "initialize",
      "outputs": [],
      "stateMutability": "nonpayable",
      "type": "function"
    },
    {
      "inputs": [
        {
          "internalType": "address",
          "name": "token",
          "type": "address"
        }
      ],
      "name": "mint",
      "outputs": [],
      "stateMutability": "nonpayable",
      "type": "function"
    },
    {
      "inputs": [
        {
          "internalType": "address",
          "name": "token",
          "type": "address"
        },
        {
          "internalType": "address",
          "name": "receiver",
          "type": "address"
        },
        {
          "internalType": "uint256",
          "name": "_amount",
          "type": "uint256"
        }
      ],
      "name": "mintTo",
      "outputs": [],
      "stateMutability": "nonpayable",
      "type": "function"
    },
    {
      "inputs": [],
      "name": "owner",
      "outputs": [
        {
          "internalType": "address",
          "name": "",
          "type": "address"
        }
      ],
      "stateMutability": "view",
      "type": "function"
    },
    {
      "inputs": [],
      "name": "proxiableUUID",
      "outputs": [
        {
          "internalType": "bytes32",
          "name": "",
          "type": "bytes32"
        }
      ],
      "stateMutability": "view",
      "type": "function"
    },
    {
      "inputs": [],
      "name": "renounceOwnership",
      "outputs": [],
      "stateMutability": "nonpayable",
      "type": "function"
    },
    {
      "inputs": [
        {
          "internalType": "uint256",
          "name": "_amount",
          "type": "uint256"
        }
      ],
      "name": "setAmountToMint",
      "outputs": [],
      "stateMutability": "nonpayable",
      "type": "function"
    },
    {
      "inputs": [
        {
          "internalType": "uint32",
          "name": "_delayTimeLong",
          "type": "uint32"
        }
      ],
      "name": "setDelayTimeLong",
      "outputs": [],
      "stateMutability": "nonpayable",
      "type": "function"
    },
    {
      "inputs": [
        {
          "internalType": "address",
          "name": "_zklinkInstance",
          "type": "address"
        }
      ],
      "name": "setZKLinkInstance",
      "outputs": [],
      "stateMutability": "nonpayable",
      "type": "function"
    },
    {
      "inputs": [
        {
          "internalType": "address",
          "name": "newOwner",
          "type": "address"
        }
      ],
      "name": "transferOwnership",
      "outputs": [],
      "stateMutability": "nonpayable",
      "type": "function"
    },
    {
      "inputs": [
        {
          "internalType": "uint16[]",
          "name": "tokenIds",
          "type": "uint16[]"
        },
        {
          "internalType": "uint256[]",
          "name": "mintAmounts",
          "type": "uint256[]"
        }
      ],
      "name": "updateMintAllowance",
      "outputs": [],
      "stateMutability": "nonpayable",
      "type": "function"
    },
    {
      "inputs": [
        {
          "internalType": "address[]",
          "name": "toAdd",
          "type": "address[]"
        },
        {
          "internalType": "address[]",
          "name": "toRemove",
          "type": "address[]"
        }
      ],
      "name": "updateWhiteList",
      "outputs": [],
      "stateMutability": "nonpayable",
      "type": "function"
    },
    {
      "inputs": [
        {
          "internalType": "address",
          "name": "newImplementation",
          "type": "address"
        }
      ],
      "name": "upgradeTo",
      "outputs": [],
      "stateMutability": "nonpayable",
      "type": "function"
    },
    {
      "inputs": [
        {
          "internalType": "address",
          "name": "newImplementation",
          "type": "address"
        },
        {
          "internalType": "bytes",
          "name": "data",
          "type": "bytes"
        }
      ],
      "name": "upgradeToAndCall",
      "outputs": [],
      "stateMutability": "payable",
      "type": "function"
    },
    {
      "inputs": [],
      "name": "zklinkInstance",
      "outputs": [
        {
          "internalType": "address",
          "name": "",
          "type": "address"
        }
      ],
      "stateMutability": "view",
      "type": "function"
    }
  ],
  "transactionHash": "0x9a1f0774b3d376c67acba07c6fb1b7b58767ceaa1c457a9db772be549eff46eb",
  "args": [],
  "numDeployments": 2,
  "solcInputHash": "1a5186a11433220e432e351bd90bc31a",
  "bytecode": "0x60a0604052306080526103e860c95560ca805463ffffffff191661546017905534801561002b57600080fd5b50608051611904610063600039600081816104c401528181610504015281816105a3015281816105e3015261067601526119046000f3fe60806040526004361061011f5760003560e01c806384152590116100a0578063b84f0cd511610064578063b84f0cd514610348578063c546ee5914610370578063e5d61eef14610390578063ef9bcb27146103b0578063f2fde38b146103d057600080fd5b806384152590146102745780638da5cb5b146102a65780639ea5429a146102d85780639fcbf581146102f8578063aa8c217c1461033257600080fd5b80635d8672f4116100e75780635d8672f4146101ea5780636a6278421461020a578063715018a61461022a5780637be599f91461023f5780638129fc1c1461025f57600080fd5b806301052c37146101245780633659cfe6146101465780634f1ef2861461016657806351e3b0f71461017957806352d1902d146101c7575b600080fd5b34801561013057600080fd5b5061014461013f36600461142b565b6103f0565b005b34801561015257600080fd5b506101446101613660046114b3565b6104ba565b6101446101743660046114e4565b610599565b34801561018557600080fd5b506101b26101943660046114b3565b6001600160a01b0316600090815260cc602052604090205460ff1690565b60405190151581526020015b60405180910390f35b3480156101d357600080fd5b506101dc610669565b6040519081526020016101be565b3480156101f657600080fd5b5061014461020536600461142b565b61071c565b34801561021657600080fd5b506101446102253660046114b3565b6108db565b34801561023657600080fd5b50610144610ad2565b34801561024b57600080fd5b5061014461025a3660046115a6565b610ae6565b34801561026b57600080fd5b50610144610b0a565b34801561028057600080fd5b5060ca546102919063ffffffff1681565b60405163ffffffff90911681526020016101be565b3480156102b257600080fd5b506033546001600160a01b03165b6040516001600160a01b0390911681526020016101be565b3480156102e457600080fd5b506101dc6102f33660046115cc565b610c23565b34801561030457600080fd5b506103186103133660046114b3565b610c50565b6040805161ffff90931683526020830191909152016101be565b34801561033e57600080fd5b506101dc60c95481565b34801561035457600080fd5b5060ca546102c09064010000000090046001600160a01b031681565b34801561037c57600080fd5b5061014461038b3660046114b3565b610cea565b34801561039c57600080fd5b506101446103ab3660046115ff565b610d51565b3480156103bc57600080fd5b506101446103cb366004611618565b610d5e565b3480156103dc57600080fd5b506101446103eb3660046114b3565b610e69565b6103f8610edf565b82811461043d5760405162461bcd60e51b815260206004820152600e60248201526d496e76616c696420506172616d7360901b60448201526064015b60405180910390fd5b60005b838110156104b35782828281811061045a5761045a611654565b9050602002013560cd600087878581811061047757610477611654565b905060200201602081019061048c919061167a565b61ffff168152602081019190915260400160002055806104ab816116ad565b915050610440565b5050505050565b6001600160a01b037f00000000000000000000000000000000000000000000000000000000000000001630036105025760405162461bcd60e51b8152600401610434906116c6565b7f00000000000000000000000000000000000000000000000000000000000000006001600160a01b031661054b600080516020611888833981519152546001600160a01b031690565b6001600160a01b0316146105715760405162461bcd60e51b815260040161043490611712565b61057a81610f39565b6040805160008082526020820190925261059691839190610f41565b50565b6001600160a01b037f00000000000000000000000000000000000000000000000000000000000000001630036105e15760405162461bcd60e51b8152600401610434906116c6565b7f00000000000000000000000000000000000000000000000000000000000000006001600160a01b031661062a600080516020611888833981519152546001600160a01b031690565b6001600160a01b0316146106505760405162461bcd60e51b815260040161043490611712565b61065982610f39565b61066582826001610f41565b5050565b6000306001600160a01b037f000000000000000000000000000000000000000000000000000000000000000016146107095760405162461bcd60e51b815260206004820152603860248201527f555550535570677261646561626c653a206d757374206e6f742062652063616c60448201527f6c6564207468726f7567682064656c656761746563616c6c00000000000000006064820152608401610434565b5060008051602061188883398151915290565b610724610edf565b60005b838110156107ff57600160cc600087878581811061074757610747611654565b905060200201602081019061075c91906114b3565b6001600160a01b031681526020810191909152604001600020805460ff19169115159190911790557fc551bbb22d0406dbfb8b6b7740cc521bcf44e1106029cf899c19b6a8e4c99d518585838181106107b7576107b7611654565b90506020020160208101906107cc91906114b3565b604080516001600160a01b039092168252600160208301520160405180910390a1806107f7816116ad565b915050610727565b5060005b818110156104b357600060cc600085858581811061082357610823611654565b905060200201602081019061083891906114b3565b6001600160a01b031681526020810191909152604001600020805460ff19169115159190911790557fc551bbb22d0406dbfb8b6b7740cc521bcf44e1106029cf899c19b6a8e4c99d5183838381811061089357610893611654565b90506020020160208101906108a891906114b3565b604080516001600160a01b039092168252600060208301520160405180910390a1806108d3816116ad565b915050610803565b60ca5433600090815260cb602090815260408083206001600160a01b038616845290915290205442916109169163ffffffff9091169061175e565b106109545760405162461bcd60e51b815260206004820152600e60248201526d074696d65206973206e6f742075760941b6044820152606401610434565b60ca5460405163fc97a30360e01b81526001600160a01b0383811660048301526000926401000000009004169063fc97a30390602401602060405180830381865afa1580156109a7573d6000803e3d6000fd5b505050506040513d601f19601f820116820180604052508101906109cb9190611771565b61ffff8116600090815260cd60205260409020549091506001600160a01b03831663a9059cbb336040516001600160e01b031960e084901b1681526001600160a01b039091166004820152602481018490526044016020604051808303816000875af1158015610a3f573d6000803e3d6000fd5b505050506040513d601f19601f82011682018060405250810190610a63919061178e565b5033600081815260cb602090815260408083206001600160a01b038816808552908352928190204290558051928352908201929092529081018290527fab8530f87dc9b59234c4623bf917212bb2536d647574c8e7e5da92c2ede0c9f8906060015b60405180910390a1505050565b610ada610edf565b610ae460006110b1565b565b610aee610edf565b60ca805463ffffffff191663ffffffff92909216919091179055565b600054610100900460ff1615808015610b2a5750600054600160ff909116105b80610b445750303b158015610b44575060005460ff166001145b610ba75760405162461bcd60e51b815260206004820152602e60248201527f496e697469616c697a61626c653a20636f6e747261637420697320616c72656160448201526d191e481a5b9a5d1a585b1a5e995960921b6064820152608401610434565b6000805460ff191660011790558015610bca576000805461ff0019166101001790555b610bd2611103565b610bda611132565b8015610596576000805461ff0019169055604051600181527f7f26b83ff96e1f2b6a682f133852f6798a09c465da95921460cefb3847402498906020015b60405180910390a150565b6001600160a01b03808316600090815260cb60209081526040808320938516835292905220545b92915050565b60ca5460405163fc97a30360e01b81526001600160a01b03838116600483015260009283926401000000009091049091169063fc97a30390602401602060405180830381865afa158015610ca8573d6000803e3d6000fd5b505050506040513d601f19601f82011682018060405250810190610ccc9190611771565b61ffff8116600090815260cd60205260409020549094909350915050565b610cf2610edf565b60ca8054640100000000600160c01b0319166401000000006001600160a01b038481168202929092179283905560405192041681527f69df5b6c2a60835f1a017f27f6c52d4f4eef88ce3a4713f0fb82a4faa8d4d8a990602001610c18565b610d59610edf565b60c955565b33600090815260cc602052604090205460ff16610dad5760405162461bcd60e51b815260206004820152600d60248201526c139bdd0815da1a5d195b1a5cdd609a1b6044820152606401610434565b60405163a9059cbb60e01b81526001600160a01b0383811660048301526024820183905284169063a9059cbb906044016020604051808303816000875af1158015610dfc573d6000803e3d6000fd5b505050506040513d601f19601f82011682018060405250810190610e20919061178e565b50604080516001600160a01b038086168252841660208201529081018290527fab8530f87dc9b59234c4623bf917212bb2536d647574c8e7e5da92c2ede0c9f890606001610ac5565b610e71610edf565b6001600160a01b038116610ed65760405162461bcd60e51b815260206004820152602660248201527f4f776e61626c653a206e6577206f776e657220697320746865207a65726f206160448201526564647265737360d01b6064820152608401610434565b610596816110b1565b6033546001600160a01b03163314610ae45760405162461bcd60e51b815260206004820181905260248201527f4f776e61626c653a2063616c6c6572206973206e6f7420746865206f776e65726044820152606401610434565b610596610edf565b7f4910fdfa16fed3260ed0e7147f7cc6da11a60208b5b9406d12a635614ffd91435460ff1615610f7957610f7483611159565b505050565b826001600160a01b03166352d1902d6040518163ffffffff1660e01b8152600401602060405180830381865afa925050508015610fd3575060408051601f3d908101601f19168201909252610fd0918101906117b0565b60015b6110365760405162461bcd60e51b815260206004820152602e60248201527f45524331393637557067726164653a206e657720696d706c656d656e7461746960448201526d6f6e206973206e6f74205555505360901b6064820152608401610434565b60008051602061188883398151915281146110a55760405162461bcd60e51b815260206004820152602960248201527f45524331393637557067726164653a20756e737570706f727465642070726f786044820152681a58589b195555525160ba1b6064820152608401610434565b50610f748383836111f5565b603380546001600160a01b038381166001600160a01b0319831681179093556040519116919082907f8be0079c531659141344cd1fd0a4f28419497f9722a3daafe3b4186f6b6457e090600090a35050565b600054610100900460ff1661112a5760405162461bcd60e51b8152600401610434906117c9565b610ae4611220565b600054610100900460ff16610ae45760405162461bcd60e51b8152600401610434906117c9565b6001600160a01b0381163b6111c65760405162461bcd60e51b815260206004820152602d60248201527f455243313936373a206e657720696d706c656d656e746174696f6e206973206e60448201526c1bdd08184818dbdb9d1c9858dd609a1b6064820152608401610434565b60008051602061188883398151915280546001600160a01b0319166001600160a01b0392909216919091179055565b6111fe83611250565b60008251118061120b5750805b15610f745761121a8383611290565b50505050565b600054610100900460ff166112475760405162461bcd60e51b8152600401610434906117c9565b610ae4336110b1565b61125981611159565b6040516001600160a01b038216907fbc7cd75a20ee27fd9adebab32041f755214dbc6bffa90cc0225b39da2e5c2d3b90600090a250565b60606112b583836040518060600160405280602781526020016118a8602791396112bc565b9392505050565b6060600080856001600160a01b0316856040516112d99190611838565b600060405180830381855af49150503d8060008114611314576040519150601f19603f3d011682016040523d82523d6000602084013e611319565b606091505b509150915061132a86838387611334565b9695505050505050565b606083156113a357825160000361139c576001600160a01b0385163b61139c5760405162461bcd60e51b815260206004820152601d60248201527f416464726573733a2063616c6c20746f206e6f6e2d636f6e74726163740000006044820152606401610434565b50816113ad565b6113ad83836113b5565b949350505050565b8151156113c55781518083602001fd5b8060405162461bcd60e51b81526004016104349190611854565b60008083601f8401126113f157600080fd5b50813567ffffffffffffffff81111561140957600080fd5b6020830191508360208260051b850101111561142457600080fd5b9250929050565b6000806000806040858703121561144157600080fd5b843567ffffffffffffffff8082111561145957600080fd5b611465888389016113df565b9096509450602087013591508082111561147e57600080fd5b5061148b878288016113df565b95989497509550505050565b80356001600160a01b03811681146114ae57600080fd5b919050565b6000602082840312156114c557600080fd5b6112b582611497565b634e487b7160e01b600052604160045260246000fd5b600080604083850312156114f757600080fd5b61150083611497565b9150602083013567ffffffffffffffff8082111561151d57600080fd5b818501915085601f83011261153157600080fd5b813581811115611543576115436114ce565b604051601f8201601f19908116603f0116810190838211818310171561156b5761156b6114ce565b8160405282815288602084870101111561158457600080fd5b8260208601602083013760006020848301015280955050505050509250929050565b6000602082840312156115b857600080fd5b813563ffffffff811681146112b557600080fd5b600080604083850312156115df57600080fd5b6115e883611497565b91506115f660208401611497565b90509250929050565b60006020828403121561161157600080fd5b5035919050565b60008060006060848603121561162d57600080fd5b61163684611497565b925061164460208501611497565b9150604084013590509250925092565b634e487b7160e01b600052603260045260246000fd5b61ffff8116811461059657600080fd5b60006020828403121561168c57600080fd5b81356112b58161166a565b634e487b7160e01b600052601160045260246000fd5b6000600182016116bf576116bf611697565b5060010190565b6020808252602c908201527f46756e6374696f6e206d7573742062652063616c6c6564207468726f7567682060408201526b19195b1959d85d1958d85b1b60a21b606082015260800190565b6020808252602c908201527f46756e6374696f6e206d7573742062652063616c6c6564207468726f7567682060408201526b6163746976652070726f787960a01b606082015260800190565b80820180821115610c4a57610c4a611697565b60006020828403121561178357600080fd5b81516112b58161166a565b6000602082840312156117a057600080fd5b815180151581146112b557600080fd5b6000602082840312156117c257600080fd5b5051919050565b6020808252602b908201527f496e697469616c697a61626c653a20636f6e7472616374206973206e6f74206960408201526a6e697469616c697a696e6760a81b606082015260800190565b60005b8381101561182f578181015183820152602001611817565b50506000910152565b6000825161184a818460208701611814565b9190910192915050565b6020815260008251806020840152611873816040850160208701611814565b601f01601f1916919091016040019291505056fe360894a13ba1a3210667c828492db98dca3e2076cc3735a920a3ca505d382bbc416464726573733a206c6f772d6c6576656c2064656c65676174652063616c6c206661696c6564a2646970667358221220717748bf2087cef5241106eea632621816e79bb21168570d2d587a28589c52f764736f6c63430008110033",
  "devdoc": {
    "kind": "dev",
    "methods": {
      "owner()": {
        "details": "Returns the address of the current owner."
      },
      "proxiableUUID()": {
        "details": "Implementation of the ERC1822 {proxiableUUID} function. This returns the storage slot used by the implementation. It is used to validate the implementation's compatibility when performing an upgrade. IMPORTANT: A proxy pointing at a proxiable contract should not be considered proxiable itself, because this risks bricking a proxy that upgrades to it, by delegating to itself until out of gas. Thus it is critical that this function revert if invoked through a proxy. This is guaranteed by the `notDelegated` modifier."
      },
      "renounceOwnership()": {
        "details": "Leaves the contract without owner. It will not be possible to call `onlyOwner` functions. Can only be called by the current owner. NOTE: Renouncing ownership will leave the contract without an owner, thereby disabling any functionality that is only available to the owner."
      },
      "transferOwnership(address)": {
        "details": "Transfers ownership of the contract to a new account (`newOwner`). Can only be called by the current owner."
      },
      "upgradeTo(address)": {
        "custom:oz-upgrades-unsafe-allow-reachable": "delegatecall",
        "details": "Upgrade the implementation of the proxy to `newImplementation`. Calls {_authorizeUpgrade}. Emits an {Upgraded} event."
      },
      "upgradeToAndCall(address,bytes)": {
        "custom:oz-upgrades-unsafe-allow-reachable": "delegatecall",
        "details": "Upgrade the implementation of the proxy to `newImplementation`, and subsequently execute the function call encoded in `data`. Calls {_authorizeUpgrade}. Emits an {Upgraded} event."
      }
    },
    "version": 1
  },
  "userdoc": {
    "kind": "user",
    "methods": {},
    "version": 1
  },
  "storageLayout": {
    "storage": [
      {
        "astId": 503,
        "contract": "contracts/FaucetUpgradeable.sol:FaucetUpgradeable",
        "label": "_initialized",
        "offset": 0,
        "slot": "0",
        "type": "t_uint8"
      },
      {
        "astId": 506,
        "contract": "contracts/FaucetUpgradeable.sol:FaucetUpgradeable",
        "label": "_initializing",
        "offset": 1,
        "slot": "0",
        "type": "t_bool"
      },
      {
        "astId": 1250,
        "contract": "contracts/FaucetUpgradeable.sol:FaucetUpgradeable",
        "label": "__gap",
        "offset": 0,
        "slot": "1",
        "type": "t_array(t_uint256)50_storage"
      },
      {
        "astId": 10,
        "contract": "contracts/FaucetUpgradeable.sol:FaucetUpgradeable",
        "label": "_owner",
        "offset": 0,
        "slot": "51",
        "type": "t_address"
      },
      {
        "astId": 130,
        "contract": "contracts/FaucetUpgradeable.sol:FaucetUpgradeable",
        "label": "__gap",
        "offset": 0,
        "slot": "52",
        "type": "t_array(t_uint256)49_storage"
      },
      {
        "astId": 485,
        "contract": "contracts/FaucetUpgradeable.sol:FaucetUpgradeable",
        "label": "__gap",
        "offset": 0,
        "slot": "101",
        "type": "t_array(t_uint256)50_storage"
      },
      {
        "astId": 800,
        "contract": "contracts/FaucetUpgradeable.sol:FaucetUpgradeable",
        "label": "__gap",
        "offset": 0,
        "slot": "151",
        "type": "t_array(t_uint256)50_storage"
      },
      {
        "astId": 1452,
        "contract": "contracts/FaucetUpgradeable.sol:FaucetUpgradeable",
        "label": "amount",
        "offset": 0,
        "slot": "201",
        "type": "t_uint256"
      },
      {
        "astId": 1455,
        "contract": "contracts/FaucetUpgradeable.sol:FaucetUpgradeable",
        "label": "delayTimeLang",
        "offset": 0,
        "slot": "202",
        "type": "t_uint32"
      },
      {
        "astId": 1457,
        "contract": "contracts/FaucetUpgradeable.sol:FaucetUpgradeable",
        "label": "zklinkInstance",
        "offset": 4,
        "slot": "202",
        "type": "t_address"
      },
      {
        "astId": 1463,
        "contract": "contracts/FaucetUpgradeable.sol:FaucetUpgradeable",
        "label": "delayedExpiration",
        "offset": 0,
        "slot": "203",
        "type": "t_mapping(t_address,t_mapping(t_address,t_uint256))"
      },
      {
        "astId": 1467,
        "contract": "contracts/FaucetUpgradeable.sol:FaucetUpgradeable",
        "label": "whitelist",
        "offset": 0,
        "slot": "204",
        "type": "t_mapping(t_address,t_bool)"
      },
      {
        "astId": 1471,
        "contract": "contracts/FaucetUpgradeable.sol:FaucetUpgradeable",
        "label": "mintAmount",
        "offset": 0,
        "slot": "205",
        "type": "t_mapping(t_uint16,t_uint256)"
      },
      {
        "astId": 1475,
        "contract": "contracts/FaucetUpgradeable.sol:FaucetUpgradeable",
        "label": "__gap",
        "offset": 0,
        "slot": "206",
        "type": "t_array(t_uint256)48_storage"
      }
    ],
    "types": {
      "t_address": {
        "encoding": "inplace",
        "label": "address",
        "numberOfBytes": "20"
      },
      "t_array(t_uint256)48_storage": {
        "base": "t_uint256",
        "encoding": "inplace",
        "label": "uint256[48]",
        "numberOfBytes": "1536"
      },
      "t_array(t_uint256)49_storage": {
        "base": "t_uint256",
        "encoding": "inplace",
        "label": "uint256[49]",
        "numberOfBytes": "1568"
      },
      "t_array(t_uint256)50_storage": {
        "base": "t_uint256",
        "encoding": "inplace",
        "label": "uint256[50]",
        "numberOfBytes": "1600"
      },
      "t_bool": {
        "encoding": "inplace",
        "label": "bool",
        "numberOfBytes": "1"
      },
      "t_mapping(t_address,t_bool)": {
        "encoding": "mapping",
        "key": "t_address",
        "label": "mapping(address => bool)",
        "numberOfBytes": "32",
        "value": "t_bool"
      },
      "t_mapping(t_address,t_mapping(t_address,t_uint256))": {
        "encoding": "mapping",
        "key": "t_address",
        "label": "mapping(address => mapping(address => uint256))",
        "numberOfBytes": "32",
        "value": "t_mapping(t_address,t_uint256)"
      },
      "t_mapping(t_address,t_uint256)": {
        "encoding": "mapping",
        "key": "t_address",
        "label": "mapping(address => uint256)",
        "numberOfBytes": "32",
        "value": "t_uint256"
      },
      "t_mapping(t_uint16,t_uint256)": {
        "encoding": "mapping",
        "key": "t_uint16",
        "label": "mapping(uint16 => uint256)",
        "numberOfBytes": "32",
        "value": "t_uint256"
      },
      "t_uint16": {
        "encoding": "inplace",
        "label": "uint16",
        "numberOfBytes": "2"
      },
      "t_uint256": {
        "encoding": "inplace",
        "label": "uint256",
        "numberOfBytes": "32"
      },
      "t_uint32": {
        "encoding": "inplace",
        "label": "uint32",
        "numberOfBytes": "4"
      },
      "t_uint8": {
        "encoding": "inplace",
        "label": "uint8",
        "numberOfBytes": "1"
      }
    }
  }
}