{
  "address": "0xb142ff1bf83813F1699c2f51A5f4e6f34E36389f",
  "abi": [
    {
      "anonymous": false,
      "inputs": [
        {
          "indexed": false,
          "internalType": "address",
          "name": "previousAdmin",
          "type": "address"
        },
        {
          "indexed": false,
          "internalType": "address",
          "name": "newAdmin",
          "type": "address"
        }
      ],
      "name": "AdminChanged",
      "type": "event"
    },
    {
      "anonymous": false,
      "inputs": [
        {
          "indexed": true,
          "internalType": "address",
          "name": "beacon",
          "type": "address"
        }
      ],
      "name": "BeaconUpgraded",
      "type": "event"
    },
    {
      "anonymous": false,
      "inputs": [
        {
          "indexed": false,
          "internalType": "uint8",
          "name": "version",
          "type": "uint8"
        }
      ],
      "name": "Initialized",
      "type": "event"
    },
    {
      "anonymous": false,
      "inputs": [
        {
          "indexed": false,
          "internalType": "address",
          "name": "token",
          "type": "address"
        },
        {
          "indexed": false,
          "internalType": "address",
          "name": "receiver",
          "type": "address"
        },
        {
          "indexed": false,
          "internalType": "uint256",
          "name": "amount",
          "type": "uint256"
        }
      ],
      "name": "Mint",
      "type": "event"
    },
    {
      "anonymous": false,
      "inputs": [
        {
          "indexed": true,
          "internalType": "address",
          "name": "previousOwner",
          "type": "address"
        },
        {
          "indexed": true,
          "internalType": "address",
          "name": "newOwner",
          "type": "address"
        }
      ],
      "name": "OwnershipTransferred",
      "type": "event"
    },
    {
      "anonymous": false,
      "inputs": [
        {
          "indexed": false,
          "internalType": "address",
          "name": "account",
          "type": "address"
        },
        {
          "indexed": false,
          "internalType": "bool",
          "name": "isWhiteList",
          "type": "bool"
        }
      ],
      "name": "UpdateWhiteList",
      "type": "event"
    },
    {
      "anonymous": false,
      "inputs": [
        {
          "indexed": true,
          "internalType": "address",
          "name": "implementation",
          "type": "address"
        }
      ],
      "name": "Upgraded",
      "type": "event"
    },
    {
      "inputs": [],
      "name": "amount",
      "outputs": [
        {
          "internalType": "uint256",
          "name": "",
          "type": "uint256"
        }
      ],
      "stateMutability": "view",
      "type": "function"
    },
    {
      "inputs": [
        {
          "internalType": "address",
          "name": "account",
          "type": "address"
        }
      ],
      "name": "checkIsInWhiteList",
      "outputs": [
        {
          "internalType": "bool",
          "name": "",
          "type": "bool"
        }
      ],
      "stateMutability": "view",
      "type": "function"
    },
    {
      "inputs": [],
      "name": "delayTimeLang",
      "outputs": [
        {
          "internalType": "uint32",
          "name": "",
          "type": "uint32"
        }
      ],
      "stateMutability": "view",
      "type": "function"
    },
    {
      "inputs": [
        {
          "internalType": "address",
          "name": "account",
          "type": "address"
        }
      ],
      "name": "getDelayExpiration",
      "outputs": [
        {
          "internalType": "uint256",
          "name": "",
          "type": "uint256"
        }
      ],
      "stateMutability": "view",
      "type": "function"
    },
    {
      "inputs": [],
      "name": "initialize",
      "outputs": [],
      "stateMutability": "nonpayable",
      "type": "function"
    },
    {
      "inputs": [
        {
          "internalType": "address",
          "name": "token",
          "type": "address"
        }
      ],
      "name": "mint",
      "outputs": [],
      "stateMutability": "nonpayable",
      "type": "function"
    },
    {
      "inputs": [
        {
          "internalType": "address",
          "name": "token",
          "type": "address"
        },
        {
          "internalType": "address",
          "name": "receiver",
          "type": "address"
        },
        {
          "internalType": "uint256",
          "name": "_amount",
          "type": "uint256"
        }
      ],
      "name": "mintTo",
      "outputs": [],
      "stateMutability": "nonpayable",
      "type": "function"
    },
    {
      "inputs": [],
      "name": "owner",
      "outputs": [
        {
          "internalType": "address",
          "name": "",
          "type": "address"
        }
      ],
      "stateMutability": "view",
      "type": "function"
    },
    {
      "inputs": [],
      "name": "proxiableUUID",
      "outputs": [
        {
          "internalType": "bytes32",
          "name": "",
          "type": "bytes32"
        }
      ],
      "stateMutability": "view",
      "type": "function"
    },
    {
      "inputs": [],
      "name": "renounceOwnership",
      "outputs": [],
      "stateMutability": "nonpayable",
      "type": "function"
    },
    {
      "inputs": [
        {
          "internalType": "uint256",
          "name": "_amount",
          "type": "uint256"
        }
      ],
      "name": "setAmountToMint",
      "outputs": [],
      "stateMutability": "nonpayable",
      "type": "function"
    },
    {
      "inputs": [
        {
          "internalType": "uint32",
          "name": "_delayTimeLong",
          "type": "uint32"
        }
      ],
      "name": "setDelayTimeLong",
      "outputs": [],
      "stateMutability": "nonpayable",
      "type": "function"
    },
    {
      "inputs": [
        {
          "internalType": "address",
          "name": "newOwner",
          "type": "address"
        }
      ],
      "name": "transferOwnership",
      "outputs": [],
      "stateMutability": "nonpayable",
      "type": "function"
    },
    {
      "inputs": [
        {
          "internalType": "address[]",
          "name": "toAdd",
          "type": "address[]"
        },
        {
          "internalType": "address[]",
          "name": "toRemove",
          "type": "address[]"
        }
      ],
      "name": "updateWhiteList",
      "outputs": [],
      "stateMutability": "nonpayable",
      "type": "function"
    },
    {
      "inputs": [
        {
          "internalType": "address",
          "name": "newImplementation",
          "type": "address"
        }
      ],
      "name": "upgradeTo",
      "outputs": [],
      "stateMutability": "nonpayable",
      "type": "function"
    },
    {
      "inputs": [
        {
          "internalType": "address",
          "name": "newImplementation",
          "type": "address"
        },
        {
          "internalType": "bytes",
          "name": "data",
          "type": "bytes"
        }
      ],
      "name": "upgradeToAndCall",
      "outputs": [],
      "stateMutability": "payable",
      "type": "function"
    }
  ],
  "transactionHash": "0x9f479c0a957ce9136496e97da047ec3db6d52eb28967837740b1e3c1660b1628",
  "args": [],
  "numDeployments": 1,
  "solcInputHash": "cb6dbf0528981b7440fe74a38ef53ec3",
  "bytecode": "0x60a0604052306080526103e860c95560ca805463ffffffff191661546017905534801561002b57600080fd5b506080516116e76100636000396000818161033801528181610381015281816104200152818161046001526104f301526116e76000f3fe6080604052600436106100f35760003560e01c80638129fc1c1161008a578063bf44f22f11610059578063bf44f22f14610298578063e5d61eef146102ce578063ef9bcb27146102ee578063f2fde38b1461030e57600080fd5b80638129fc1c1461021357806384152590146102285780638da5cb5b1461025a578063aa8c217c1461028257600080fd5b80635d8672f4116100c65780635d8672f41461019e5780636a627842146101be578063715018a6146101de5780637be599f9146101f357600080fd5b80633659cfe6146100f85780634f1ef2861461011a57806351e3b0f71461012d57806352d1902d1461017b575b600080fd5b34801561010457600080fd5b50610118610113366004611127565b61032e565b005b610118610128366004611158565b610416565b34801561013957600080fd5b50610166610148366004611127565b6001600160a01b0316600090815260cc602052604090205460ff1690565b60405190151581526020015b60405180910390f35b34801561018757600080fd5b506101906104e6565b604051908152602001610172565b3480156101aa57600080fd5b506101186101b9366004611266565b610599565b3480156101ca57600080fd5b506101186101d9366004611127565b61075f565b3480156101ea57600080fd5b50610118610923565b3480156101ff57600080fd5b5061011861020e3660046112d2565b610937565b34801561021f57600080fd5b5061011861095b565b34801561023457600080fd5b5060ca546102459063ffffffff1681565b60405163ffffffff9091168152602001610172565b34801561026657600080fd5b506033546040516001600160a01b039091168152602001610172565b34801561028e57600080fd5b5061019060c95481565b3480156102a457600080fd5b506101906102b3366004611127565b6001600160a01b0316600090815260cb602052604090205490565b3480156102da57600080fd5b506101186102e93660046112ff565b610a73565b3480156102fa57600080fd5b50610118610309366004611318565b610a80565b34801561031a57600080fd5b50610118610329366004611127565b610b93565b6001600160a01b037f000000000000000000000000000000000000000000000000000000000000000016300361037f5760405162461bcd60e51b815260040161037690611354565b60405180910390fd5b7f00000000000000000000000000000000000000000000000000000000000000006001600160a01b03166103c860008051602061166b833981519152546001600160a01b031690565b6001600160a01b0316146103ee5760405162461bcd60e51b8152600401610376906113a0565b6103f781610c09565b6040805160008082526020820190925261041391839190610c11565b50565b6001600160a01b037f000000000000000000000000000000000000000000000000000000000000000016300361045e5760405162461bcd60e51b815260040161037690611354565b7f00000000000000000000000000000000000000000000000000000000000000006001600160a01b03166104a760008051602061166b833981519152546001600160a01b031690565b6001600160a01b0316146104cd5760405162461bcd60e51b8152600401610376906113a0565b6104d682610c09565b6104e282826001610c11565b5050565b6000306001600160a01b037f000000000000000000000000000000000000000000000000000000000000000016146105865760405162461bcd60e51b815260206004820152603860248201527f555550535570677261646561626c653a206d757374206e6f742062652063616c60448201527f6c6564207468726f7567682064656c656761746563616c6c00000000000000006064820152608401610376565b5060008051602061166b83398151915290565b6105a1610d81565b60005b8381101561067c57600160cc60008787858181106105c4576105c46113ec565b90506020020160208101906105d99190611127565b6001600160a01b031681526020810191909152604001600020805460ff19169115159190911790557fc551bbb22d0406dbfb8b6b7740cc521bcf44e1106029cf899c19b6a8e4c99d51858583818110610634576106346113ec565b90506020020160208101906106499190611127565b604080516001600160a01b039092168252600160208301520160405180910390a18061067481611418565b9150506105a4565b5060005b8181101561075857600060cc60008585858181106106a0576106a06113ec565b90506020020160208101906106b59190611127565b6001600160a01b031681526020810191909152604001600020805460ff19169115159190911790557fc551bbb22d0406dbfb8b6b7740cc521bcf44e1106029cf899c19b6a8e4c99d51838383818110610710576107106113ec565b90506020020160208101906107259190611127565b604080516001600160a01b039092168252600060208301520160405180910390a18061075081611418565b915050610680565b5050505050565b33600090815260cb602052604090205442116107ae5760405162461bcd60e51b815260206004820152600e60248201526d074696d65206973206e6f742075760941b6044820152606401610376565b6000816001600160a01b031663313ce5676040518163ffffffff1660e01b8152600401602060405180830381865afa1580156107ee573d6000803e3d6000fd5b505050506040513d601f19601f820116820180604052508101906108129190611431565b61081d90600a611538565b60c95461082a9190611547565b90506001600160a01b03821663a9059cbb336040516001600160e01b031960e084901b1681526001600160a01b039091166004820152602481018490526044016020604051808303816000875af1158015610889573d6000803e3d6000fd5b505050506040513d601f19601f820116820180604052508101906108ad919061155e565b5060ca546108c19063ffffffff1642611580565b33600081815260cb60209081526040918290209390935580516001600160a01b03861681529283019190915281018290527fab8530f87dc9b59234c4623bf917212bb2536d647574c8e7e5da92c2ede0c9f89060600160405180910390a15050565b61092b610d81565b6109356000610ddb565b565b61093f610d81565b60ca805463ffffffff191663ffffffff92909216919091179055565b600054610100900460ff161580801561097b5750600054600160ff909116105b806109955750303b158015610995575060005460ff166001145b6109f85760405162461bcd60e51b815260206004820152602e60248201527f496e697469616c697a61626c653a20636f6e747261637420697320616c72656160448201526d191e481a5b9a5d1a585b1a5e995960921b6064820152608401610376565b6000805460ff191660011790558015610a1b576000805461ff0019166101001790555b610a23610e2d565b610a2b610e5c565b8015610413576000805461ff0019169055604051600181527f7f26b83ff96e1f2b6a682f133852f6798a09c465da95921460cefb38474024989060200160405180910390a150565b610a7b610d81565b60c955565b33600090815260cc602052604090205460ff16610acf5760405162461bcd60e51b815260206004820152600d60248201526c139bdd0815da1a5d195b1a5cdd609a1b6044820152606401610376565b60405163a9059cbb60e01b81526001600160a01b0383811660048301526024820183905284169063a9059cbb906044016020604051808303816000875af1158015610b1e573d6000803e3d6000fd5b505050506040513d601f19601f82011682018060405250810190610b42919061155e565b50604080516001600160a01b038086168252841660208201529081018290527fab8530f87dc9b59234c4623bf917212bb2536d647574c8e7e5da92c2ede0c9f89060600160405180910390a1505050565b610b9b610d81565b6001600160a01b038116610c005760405162461bcd60e51b815260206004820152602660248201527f4f776e61626c653a206e6577206f776e657220697320746865207a65726f206160448201526564647265737360d01b6064820152608401610376565b61041381610ddb565b610413610d81565b7f4910fdfa16fed3260ed0e7147f7cc6da11a60208b5b9406d12a635614ffd91435460ff1615610c4957610c4483610e83565b505050565b826001600160a01b03166352d1902d6040518163ffffffff1660e01b8152600401602060405180830381865afa925050508015610ca3575060408051601f3d908101601f19168201909252610ca091810190611593565b60015b610d065760405162461bcd60e51b815260206004820152602e60248201527f45524331393637557067726164653a206e657720696d706c656d656e7461746960448201526d6f6e206973206e6f74205555505360901b6064820152608401610376565b60008051602061166b8339815191528114610d755760405162461bcd60e51b815260206004820152602960248201527f45524331393637557067726164653a20756e737570706f727465642070726f786044820152681a58589b195555525160ba1b6064820152608401610376565b50610c44838383610f1f565b6033546001600160a01b031633146109355760405162461bcd60e51b815260206004820181905260248201527f4f776e61626c653a2063616c6c6572206973206e6f7420746865206f776e65726044820152606401610376565b603380546001600160a01b038381166001600160a01b0319831681179093556040519116919082907f8be0079c531659141344cd1fd0a4f28419497f9722a3daafe3b4186f6b6457e090600090a35050565b600054610100900460ff16610e545760405162461bcd60e51b8152600401610376906115ac565b610935610f4a565b600054610100900460ff166109355760405162461bcd60e51b8152600401610376906115ac565b6001600160a01b0381163b610ef05760405162461bcd60e51b815260206004820152602d60248201527f455243313936373a206e657720696d706c656d656e746174696f6e206973206e60448201526c1bdd08184818dbdb9d1c9858dd609a1b6064820152608401610376565b60008051602061166b83398151915280546001600160a01b0319166001600160a01b0392909216919091179055565b610f2883610f7a565b600082511180610f355750805b15610c4457610f448383610fba565b50505050565b600054610100900460ff16610f715760405162461bcd60e51b8152600401610376906115ac565b61093533610ddb565b610f8381610e83565b6040516001600160a01b038216907fbc7cd75a20ee27fd9adebab32041f755214dbc6bffa90cc0225b39da2e5c2d3b90600090a250565b6060610fdf838360405180606001604052806027815260200161168b60279139610fe8565b90505b92915050565b6060600080856001600160a01b031685604051611005919061161b565b600060405180830381855af49150503d8060008114611040576040519150601f19603f3d011682016040523d82523d6000602084013e611045565b606091505b509150915061105686838387611060565b9695505050505050565b606083156110cf5782516000036110c8576001600160a01b0385163b6110c85760405162461bcd60e51b815260206004820152601d60248201527f416464726573733a2063616c6c20746f206e6f6e2d636f6e74726163740000006044820152606401610376565b50816110d9565b6110d983836110e1565b949350505050565b8151156110f15781518083602001fd5b8060405162461bcd60e51b81526004016103769190611637565b80356001600160a01b038116811461112257600080fd5b919050565b60006020828403121561113957600080fd5b610fdf8261110b565b634e487b7160e01b600052604160045260246000fd5b6000806040838503121561116b57600080fd5b6111748361110b565b9150602083013567ffffffffffffffff8082111561119157600080fd5b818501915085601f8301126111a557600080fd5b8135818111156111b7576111b7611142565b604051601f8201601f19908116603f011681019083821181831017156111df576111df611142565b816040528281528860208487010111156111f857600080fd5b8260208601602083013760006020848301015280955050505050509250929050565b60008083601f84011261122c57600080fd5b50813567ffffffffffffffff81111561124457600080fd5b6020830191508360208260051b850101111561125f57600080fd5b9250929050565b6000806000806040858703121561127c57600080fd5b843567ffffffffffffffff8082111561129457600080fd5b6112a08883890161121a565b909650945060208701359150808211156112b957600080fd5b506112c68782880161121a565b95989497509550505050565b6000602082840312156112e457600080fd5b813563ffffffff811681146112f857600080fd5b9392505050565b60006020828403121561131157600080fd5b5035919050565b60008060006060848603121561132d57600080fd5b6113368461110b565b92506113446020850161110b565b9150604084013590509250925092565b6020808252602c908201527f46756e6374696f6e206d7573742062652063616c6c6564207468726f7567682060408201526b19195b1959d85d1958d85b1b60a21b606082015260800190565b6020808252602c908201527f46756e6374696f6e206d7573742062652063616c6c6564207468726f7567682060408201526b6163746976652070726f787960a01b606082015260800190565b634e487b7160e01b600052603260045260246000fd5b634e487b7160e01b600052601160045260246000fd5b60006001820161142a5761142a611402565b5060010190565b60006020828403121561144357600080fd5b815160ff811681146112f857600080fd5b600181815b8085111561148f57816000190482111561147557611475611402565b8085161561148257918102915b93841c9390800290611459565b509250929050565b6000826114a657506001610fe2565b816114b357506000610fe2565b81600181146114c957600281146114d3576114ef565b6001915050610fe2565b60ff8411156114e4576114e4611402565b50506001821b610fe2565b5060208310610133831016604e8410600b8410161715611512575081810a610fe2565b61151c8383611454565b806000190482111561153057611530611402565b029392505050565b6000610fdf60ff841683611497565b8082028115828204841417610fe257610fe2611402565b60006020828403121561157057600080fd5b815180151581146112f857600080fd5b80820180821115610fe257610fe2611402565b6000602082840312156115a557600080fd5b5051919050565b6020808252602b908201527f496e697469616c697a61626c653a20636f6e7472616374206973206e6f74206960408201526a6e697469616c697a696e6760a81b606082015260800190565b60005b838110156116125781810151838201526020016115fa565b50506000910152565b6000825161162d8184602087016115f7565b9190910192915050565b60208152600082518060208401526116568160408501602087016115f7565b601f01601f1916919091016040019291505056fe360894a13ba1a3210667c828492db98dca3e2076cc3735a920a3ca505d382bbc416464726573733a206c6f772d6c6576656c2064656c65676174652063616c6c206661696c6564a2646970667358221220e6d3cb04e3607f4fad24c821df712bb82e52b16e79ab6ab78fdc67f5c2549fe964736f6c63430008110033",
  "devdoc": {
    "kind": "dev",
    "methods": {
      "owner()": {
        "details": "Returns the address of the current owner."
      },
      "proxiableUUID()": {
        "details": "Implementation of the ERC1822 {proxiableUUID} function. This returns the storage slot used by the implementation. It is used to validate the implementation's compatibility when performing an upgrade. IMPORTANT: A proxy pointing at a proxiable contract should not be considered proxiable itself, because this risks bricking a proxy that upgrades to it, by delegating to itself until out of gas. Thus it is critical that this function revert if invoked through a proxy. This is guaranteed by the `notDelegated` modifier."
      },
      "renounceOwnership()": {
        "details": "Leaves the contract without owner. It will not be possible to call `onlyOwner` functions. Can only be called by the current owner. NOTE: Renouncing ownership will leave the contract without an owner, thereby disabling any functionality that is only available to the owner."
      },
      "transferOwnership(address)": {
        "details": "Transfers ownership of the contract to a new account (`newOwner`). Can only be called by the current owner."
      },
      "upgradeTo(address)": {
        "custom:oz-upgrades-unsafe-allow-reachable": "delegatecall",
        "details": "Upgrade the implementation of the proxy to `newImplementation`. Calls {_authorizeUpgrade}. Emits an {Upgraded} event."
      },
      "upgradeToAndCall(address,bytes)": {
        "custom:oz-upgrades-unsafe-allow-reachable": "delegatecall",
        "details": "Upgrade the implementation of the proxy to `newImplementation`, and subsequently execute the function call encoded in `data`. Calls {_authorizeUpgrade}. Emits an {Upgraded} event."
      }
    },
    "version": 1
  },
  "userdoc": {
    "kind": "user",
    "methods": {},
    "version": 1
  },
  "storageLayout": {
    "storage": [
      {
        "astId": 503,
        "contract": "contracts/Faucet.sol:Faucet",
        "label": "_initialized",
        "offset": 0,
        "slot": "0",
        "type": "t_uint8"
      },
      {
        "astId": 506,
        "contract": "contracts/Faucet.sol:Faucet",
        "label": "_initializing",
        "offset": 1,
        "slot": "0",
        "type": "t_bool"
      },
      {
        "astId": 1275,
        "contract": "contracts/Faucet.sol:Faucet",
        "label": "__gap",
        "offset": 0,
        "slot": "1",
        "type": "t_array(t_uint256)50_storage"
      },
      {
        "astId": 10,
        "contract": "contracts/Faucet.sol:Faucet",
        "label": "_owner",
        "offset": 0,
        "slot": "51",
        "type": "t_address"
      },
      {
        "astId": 130,
        "contract": "contracts/Faucet.sol:Faucet",
        "label": "__gap",
        "offset": 0,
        "slot": "52",
        "type": "t_array(t_uint256)49_storage"
      },
      {
        "astId": 485,
        "contract": "contracts/Faucet.sol:Faucet",
        "label": "__gap",
        "offset": 0,
        "slot": "101",
        "type": "t_array(t_uint256)50_storage"
      },
      {
        "astId": 800,
        "contract": "contracts/Faucet.sol:Faucet",
        "label": "__gap",
        "offset": 0,
        "slot": "151",
        "type": "t_array(t_uint256)50_storage"
      },
      {
        "astId": 2111,
        "contract": "contracts/Faucet.sol:Faucet",
        "label": "amount",
        "offset": 0,
        "slot": "201",
        "type": "t_uint256"
      },
      {
        "astId": 2114,
        "contract": "contracts/Faucet.sol:Faucet",
        "label": "delayTimeLang",
        "offset": 0,
        "slot": "202",
        "type": "t_uint32"
      },
      {
        "astId": 2118,
        "contract": "contracts/Faucet.sol:Faucet",
        "label": "delayedExpiration",
        "offset": 0,
        "slot": "203",
        "type": "t_mapping(t_address,t_uint256)"
      },
      {
        "astId": 2122,
        "contract": "contracts/Faucet.sol:Faucet",
        "label": "whitelist",
        "offset": 0,
        "slot": "204",
        "type": "t_mapping(t_address,t_bool)"
      },
      {
        "astId": 2126,
        "contract": "contracts/Faucet.sol:Faucet",
        "label": "__gap",
        "offset": 0,
        "slot": "205",
        "type": "t_array(t_uint256)49_storage"
      }
    ],
    "types": {
      "t_address": {
        "encoding": "inplace",
        "label": "address",
        "numberOfBytes": "20"
      },
      "t_array(t_uint256)49_storage": {
        "base": "t_uint256",
        "encoding": "inplace",
        "label": "uint256[49]",
        "numberOfBytes": "1568"
      },
      "t_array(t_uint256)50_storage": {
        "base": "t_uint256",
        "encoding": "inplace",
        "label": "uint256[50]",
        "numberOfBytes": "1600"
      },
      "t_bool": {
        "encoding": "inplace",
        "label": "bool",
        "numberOfBytes": "1"
      },
      "t_mapping(t_address,t_bool)": {
        "encoding": "mapping",
        "key": "t_address",
        "label": "mapping(address => bool)",
        "numberOfBytes": "32",
        "value": "t_bool"
      },
      "t_mapping(t_address,t_uint256)": {
        "encoding": "mapping",
        "key": "t_address",
        "label": "mapping(address => uint256)",
        "numberOfBytes": "32",
        "value": "t_uint256"
      },
      "t_uint256": {
        "encoding": "inplace",
        "label": "uint256",
        "numberOfBytes": "32"
      },
      "t_uint32": {
        "encoding": "inplace",
        "label": "uint32",
        "numberOfBytes": "4"
      },
      "t_uint8": {
        "encoding": "inplace",
        "label": "uint8",
        "numberOfBytes": "1"
      }
    }
  }
}